{
  "abi": [
    {
      "inputs": [
        {
          "internalType": "int16[]",
          "name": "buffs",
          "type": "int16[]"
        },
        {
          "internalType": "address[]",
          "name": "nftAddresses",
          "type": "address[]"
        },
        {
          "components": [
            {
              "internalType": "uint8",
              "name": "tier",
              "type": "uint8"
            },
            {
              "internalType": "uint8",
              "name": "mul",
              "type": "uint8"
            },
            {
              "internalType": "int16",
              "name": "buff",
              "type": "int16"
            }
          ],
          "internalType": "struct BufferRandomizer.Tier[]",
          "name": "tiers",
          "type": "tuple[]"
        }
      ],
      "stateMutability": "nonpayable",
      "type": "constructor"
    },
    {
      "inputs": [],
      "name": "IndexOutOfBounds",
      "type": "error"
    },
    {
      "inputs": [],
      "name": "InvalidBaseValue",
      "type": "error"
    },
    {
      "inputs": [],
      "name": "InvalidTier",
      "type": "error"
    },
    {
      "inputs": [],
      "name": "InvalidWeights",
      "type": "error"
    },
    {
      "inputs": [],
      "name": "NotOwner",
      "type": "error"
    },
    {
      "inputs": [
        {
          "internalType": "address",
          "name": "nftAddress",
          "type": "address"
        },
        {
          "components": [
            {
              "internalType": "uint8",
              "name": "tier",
              "type": "uint8"
            },
            {
              "internalType": "uint8",
              "name": "mul",
              "type": "uint8"
            },
            {
              "internalType": "int16",
              "name": "buff",
              "type": "int16"
            }
          ],
          "internalType": "struct BufferRandomizer.Tier",
          "name": "tier",
          "type": "tuple"
        }
      ],
      "name": "addAcceptedNFT",
      "outputs": [],
      "stateMutability": "nonpayable",
      "type": "function"
    },
    {
      "inputs": [
        {
          "internalType": "int16",
          "name": "buff",
          "type": "int16"
        }
      ],
      "name": "addBuff",
      "outputs": [],
      "stateMutability": "nonpayable",
      "type": "function"
    },
    {
      "inputs": [
        {
          "internalType": "uint256",
          "name": "index",
          "type": "uint256"
        }
      ],
      "name": "getBuff",
      "outputs": [
        {
          "internalType": "int16",
          "name": "",
          "type": "int16"
        }
      ],
      "stateMutability": "view",
      "type": "function"
    },
    {
      "inputs": [],
      "name": "getBuffs",
      "outputs": [
        {
          "internalType": "int16[]",
          "name": "",
          "type": "int16[]"
        }
      ],
      "stateMutability": "view",
      "type": "function"
    },
    {
      "inputs": [
        {
          "internalType": "int256",
          "name": "baseValue",
          "type": "int256"
        },
        {
          "internalType": "address",
          "name": "nftAddress",
          "type": "address"
        },
        {
          "internalType": "uint256",
          "name": "nftId",
          "type": "uint256"
        }
      ],
      "name": "getRandomBuff",
      "outputs": [
        {
          "internalType": "int256",
          "name": "adjustedValue",
          "type": "int256"
        }
      ],
      "stateMutability": "nonpayable",
      "type": "function"
    },
    {
      "inputs": [],
      "name": "getRandomWeight",
      "outputs": [
        {
          "internalType": "int16",
          "name": "",
          "type": "int16"
        }
      ],
      "stateMutability": "view",
      "type": "function"
    },
    {
      "inputs": [
        {
          "internalType": "address",
          "name": "nftAddress",
          "type": "address"
        }
      ],
      "name": "getTier",
      "outputs": [
        {
          "components": [
            {
              "internalType": "uint8",
              "name": "tier",
              "type": "uint8"
            },
            {
              "internalType": "uint8",
              "name": "mul",
              "type": "uint8"
            },
            {
              "internalType": "int16",
              "name": "buff",
              "type": "int16"
            }
          ],
          "internalType": "struct BufferRandomizer.Tier",
          "name": "",
          "type": "tuple"
        }
      ],
      "stateMutability": "view",
      "type": "function"
    },
    {
      "inputs": [
        {
          "internalType": "address",
          "name": "nftAddress",
          "type": "address"
        }
      ],
      "name": "isAcceptedNFT",
      "outputs": [
        {
          "internalType": "bool",
          "name": "",
          "type": "bool"
        }
      ],
      "stateMutability": "view",
      "type": "function"
    },
    {
      "inputs": [
        {
          "internalType": "address",
          "name": "",
          "type": "address"
        }
      ],
      "name": "nftToBuffTier",
      "outputs": [
        {
          "internalType": "uint8",
          "name": "tier",
          "type": "uint8"
        },
        {
          "internalType": "uint8",
          "name": "mul",
          "type": "uint8"
        },
        {
          "internalType": "int16",
          "name": "buff",
          "type": "int16"
        }
      ],
      "stateMutability": "view",
      "type": "function"
    },
    {
      "inputs": [
        {
          "internalType": "uint256",
          "name": "index",
          "type": "uint256"
        }
      ],
      "name": "removeBuffAndReplace",
      "outputs": [],
      "stateMutability": "nonpayable",
      "type": "function"
    },
    {
      "inputs": [
        {
          "internalType": "uint256",
          "name": "index",
          "type": "uint256"
        }
      ],
      "name": "removeBuffAndShift",
      "outputs": [],
      "stateMutability": "nonpayable",
      "type": "function"
    }
  ],
  "bytecode": {
    "object": "0x60806040523480156200001157600080fd5b50604051620012bc380380620012bc8339810160408190526200003491620003b6565b600080546001600160a01b0319163317905580518251146200006957604051634e23d03560e01b815260040160405180910390fd5b60005b8351811015620000e75760018482815181106200008d576200008d620004ad565b602090810291909101810151825460018101845560009384529190922060108204018054600f9092166002026101000a61ffff81810219909316929093169290920217905580620000de81620004c3565b9150506200006c565b5060005b8251811015620001a5578181815181106200010a576200010a620004ad565b6020026020010151600260008584815181106200012b576200012b620004ad565b6020908102919091018101516001600160a01b031682528181019290925260409081016000208351815493850151949092015161ffff16620100000263ffff00001960ff9586166101000261ffff1990951695909316949094179290921716919091179055806200019c81620004c3565b915050620000eb565b50505050620004eb565b634e487b7160e01b600052604160045260246000fd5b604051606081016001600160401b0381118282101715620001ea57620001ea620001af565b60405290565b604051601f8201601f191681016001600160401b03811182821017156200021b576200021b620001af565b604052919050565b60006001600160401b038211156200023f576200023f620001af565b5060051b60200190565b8051600181900b81146200025c57600080fd5b919050565b600082601f8301126200027357600080fd5b815160206200028c620002868362000223565b620001f0565b82815260059290921b84018101918181019086841115620002ac57600080fd5b8286015b84811015620002e05780516001600160a01b0381168114620002d25760008081fd5b8352918301918301620002b0565b509695505050505050565b805160ff811681146200025c57600080fd5b600082601f8301126200030f57600080fd5b8151602062000322620002868362000223565b828152606092830285018201928282019190878511156200034257600080fd5b8387015b85811015620003a95781818a031215620003605760008081fd5b6200036a620001c5565b6200037582620002eb565b815262000384868301620002eb565b8682015260406200039781840162000249565b90820152845292840192810162000346565b5090979650505050505050565b600080600060608486031215620003cc57600080fd5b83516001600160401b0380821115620003e457600080fd5b818601915086601f830112620003f957600080fd5b815160206200040c620002868362000223565b82815260059290921b8401810191818101908a8411156200042c57600080fd5b948201945b838610156200045557620004458662000249565b8252948201949082019062000431565b918901519197509093505050808211156200046f57600080fd5b6200047d8783880162000261565b935060408601519150808211156200049457600080fd5b50620004a386828701620002fd565b9150509250925092565b634e487b7160e01b600052603260045260246000fd5b600060018201620004e457634e487b7160e01b600052601160045260246000fd5b5060010190565b610dc180620004fb6000396000f3fe608060405234801561001057600080fd5b50600436106100a95760003560e01c806384b0d9fd1161007157806384b0d9fd1461016c5780639030d9b51461018757806396914c581461019a578063b45aae52146101ad578063da6309e514610248578063fad1323d1461025b57600080fd5b80631163c056146100ae578063379bc3a1146100c357806339bff709146100e95780636051e74014610144578063656682aa14610159575b600080fd5b6100c16100bc366004610ae7565b610299565b005b6100d66100d1366004610b88565b610322565b6040519081526020015b60405180910390f35b6101216100f7366004610bbd565b60026020526000908152604090205460ff8082169161010081049091169062010000900460010b83565b6040805160ff948516815293909216602084015260010b908201526060016100e0565b61014c6103bf565b6040516100e09190610bdf565b6100c1610167366004610c26565b61043d565b610174610586565b60405160019190910b81526020016100e0565b610174610195366004610c26565b610595565b6100c16101a8366004610c26565b6105d4565b61021b6101bb366004610bbd565b6040805160608082018352600080835260208084018290529284018190526001600160a01b039490941684526002825292829020825193840183525460ff80821685526101008204169184019190915262010000900460010b9082015290565b60408051825160ff9081168252602080850151909116908201529181015160010b908201526060016100e0565b6100c1610256366004610c3f565b6106c2565b610289610269366004610bbd565b6001600160a01b031660009081526002602052604090205460ff16151590565b60405190151581526020016100e0565b6000546001600160a01b031633146102c4576040516330cd747160e01b815260040160405180910390fd5b6001600160a01b039091166000908152600260209081526040918290208351815492850151939094015161ffff16620100000263ffff00001960ff9485166101000261ffff1990941694909516939093179190911792909216179055565b600083600003610345576040516370c043a360e11b815260040160405180910390fd5b6001546000036103685760405163108cef9d60e31b815260040160405180910390fd5b60006001600160a01b0384161561038857610383848461074a565b610390565b6103906109e9565b905060646103a2600183900b87610c70565b6103ac9190610cb6565b6103b69086610ce4565b95945050505050565b6060600180548060200260200160405190810160405280929190818152602001828054801561043357602002820191906000526020600020906000905b82829054906101000a900460010b60010b815260200190600201906020826001010492830192600103820291508084116103fc5790505b5050505050905090565b6000546001600160a01b03163314610468576040516330cd747160e01b815260040160405180910390fd5b6001548015806104785750808210155b1561049657604051634e23d03560e01b815260040160405180910390fd5b6104a1600182610d0c565b9050815b818110156105445760016104b98282610d1f565b815481106104c9576104c9610d32565b90600052602060002090601091828204019190066002029054906101000a900460010b600182815481106104ff576104ff610d32565b90600052602060002090601091828204019190066002026101000a81548161ffff021916908360010b61ffff160217905550808061053c90610d48565b9150506104a5565b50600180548061055657610556610d61565b600082815260209020601060001990920191820401805461ffff6002600f8516026101000a021916905590555050565b60006105906109e9565b905090565b6000600182815481106105aa576105aa610d32565b90600052602060002090601091828204019190066002029054906101000a900460010b9050919050565b6000546001600160a01b031633146105ff576040516330cd747160e01b815260040160405180910390fd5b60015480158061060f5750808210155b1561062d57604051634e23d03560e01b815260040160405180910390fd5b60016106398183610d0c565b8154811061064957610649610d32565b90600052602060002090601091828204019190066002029054906101000a900460010b6001838154811061067f5761067f610d32565b90600052602060002090601091828204019190066002026101000a81548161ffff021916908360010b61ffff160217905550600180548061055657610556610d61565b6000546001600160a01b031633146106ed576040516330cd747160e01b815260040160405180910390fd5b6001805480820182556000919091527fb10e2d527612073b26eecdfd717e6a320cf44b4afac2b0732d9fcbe2b7fa0cf660108204018054600f9092166002026101000a61ffff818102199093169390921691909102919091179055565b6001600160a01b03821660009081526002602052604081205460ff1681036107855760405163e142361760e01b815260040160405180910390fd5b6001600160a01b03831660009081526002602090815260408083208151606081018352905460ff8082168352610100820416938201849052620100009004600190810b928201929092529054909290916107df9083610d1f565b905060008167ffffffffffffffff8111156107fc576107fc610aae565b604051908082528060200260200182016040528015610825578160200160208202803683370190505b50905060005b838110156108a2576001818154811061084657610846610d32565b90600052602060002090601091828204019190066002029054906101000a900460010b82828151811061087b5761087b610d32565b602002602001019060010b908160010b81525050808061089a90610d48565b91505061082b565b5060006108b0600185610d0c565b90505b828110156108f95784604001518282815181106108d2576108d2610d32565b602002602001019060010b908160010b8152505080806108f190610d48565b9150506108b3565b506040516323b872dd60e01b8152336004820152306024820152604481018790526001600160a01b038816906323b872dd90606401600060405180830381600087803b15801561094857600080fd5b505af115801561095c573d6000803e3d6000fd5b5050604051630852cd8d60e31b8152600481018990526001600160a01b038a1692506342966c689150602401600060405180830381600087803b1580156109a257600080fd5b505af11580156109b6573d6000803e3d6000fd5b50505050806109c483610a33565b815181106109d4576109d4610d32565b60200260200101519450505050505b92915050565b600060016109fb600180549050610a33565b81548110610a0b57610a0b610d32565b90600052602060002090601091828204019190066002029054906101000a900460010b905090565b60008142434033604051602001610a6f93929190928352602083019190915260601b6bffffffffffffffffffffffff1916604082015260540190565b6040516020818303038152906040528051906020012060001c6109e39190610d77565b80356001600160a01b0381168114610aa957600080fd5b919050565b634e487b7160e01b600052604160045260246000fd5b803560ff81168114610aa957600080fd5b8035600181900b8114610aa957600080fd5b6000808284036080811215610afb57600080fd5b610b0484610a92565b92506060601f1982011215610b1857600080fd5b506040516060810181811067ffffffffffffffff82111715610b4a57634e487b7160e01b600052604160045260246000fd5b604052610b5960208501610ac4565b8152610b6760408501610ac4565b6020820152610b7860608501610ad5565b6040820152809150509250929050565b600080600060608486031215610b9d57600080fd5b83359250610bad60208501610a92565b9150604084013590509250925092565b600060208284031215610bcf57600080fd5b610bd882610a92565b9392505050565b6020808252825182820181905260009190848201906040850190845b81811015610c1a578351600190810b8452938501939285019201610bfb565b50909695505050505050565b600060208284031215610c3857600080fd5b5035919050565b600060208284031215610c5157600080fd5b610bd882610ad5565b634e487b7160e01b600052601160045260246000fd5b80820260008212600160ff1b84141615610c8c57610c8c610c5a565b81810583148215176109e3576109e3610c5a565b634e487b7160e01b600052601260045260246000fd5b600082610cc557610cc5610ca0565b600160ff1b821460001984141615610cdf57610cdf610c5a565b500590565b8082018281126000831280158216821582161715610d0457610d04610c5a565b505092915050565b818103818111156109e3576109e3610c5a565b808201808211156109e3576109e3610c5a565b634e487b7160e01b600052603260045260246000fd5b600060018201610d5a57610d5a610c5a565b5060010190565b634e487b7160e01b600052603160045260246000fd5b600082610d8657610d86610ca0565b50069056fea2646970667358221220593b42e3479635106763c72cb091c2ba8e90bdf20b377a7f632bac4f42c8ca2864736f6c63430008130033",
    "linkReferences": {}
  },
  "methodIdentifiers": {
    "addAcceptedNFT(address,(uint8,uint8,int16))": "1163c056",
    "addBuff(int16)": "da6309e5",
    "getBuff(uint256)": "9030d9b5",
    "getBuffs()": "6051e740",
    "getRandomBuff(int256,address,uint256)": "379bc3a1",
    "getRandomWeight()": "84b0d9fd",
    "getTier(address)": "b45aae52",
    "isAcceptedNFT(address)": "fad1323d",
    "nftToBuffTier(address)": "39bff709",
    "removeBuffAndReplace(uint256)": "96914c58",
    "removeBuffAndShift(uint256)": "656682aa"
  },
  "id": 17
}