{
  "abi": [
    {
      "inputs": [
        {
          "internalType": "int16[]",
          "name": "buffs",
          "type": "int16[]"
        },
        {
          "internalType": "address[]",
          "name": "nftAddresses",
          "type": "address[]"
        },
        {
          "components": [
            {
              "internalType": "uint8",
              "name": "tier",
              "type": "uint8"
            },
            {
              "internalType": "uint8",
              "name": "mul",
              "type": "uint8"
            },
            {
              "internalType": "int16",
              "name": "buff",
              "type": "int16"
            }
          ],
          "internalType": "struct BufferRandomizer.Tier[]",
          "name": "tiers",
          "type": "tuple[]"
        }
      ],
      "stateMutability": "nonpayable",
      "type": "constructor"
    },
    {
      "inputs": [],
      "name": "IndexOutOfBounds",
      "type": "error"
    },
    {
      "inputs": [],
      "name": "InvalidBaseValue",
      "type": "error"
    },
    {
      "inputs": [],
      "name": "InvalidTier",
      "type": "error"
    },
    {
      "inputs": [],
      "name": "InvalidWeights",
      "type": "error"
    },
    {
      "inputs": [],
      "name": "NotOwner",
      "type": "error"
    },
    {
      "inputs": [],
      "name": "SCALING_FACTOR",
      "outputs": [
        {
          "internalType": "int256",
          "name": "",
          "type": "int256"
        }
      ],
      "stateMutability": "view",
      "type": "function"
    },
    {
      "inputs": [
        {
          "internalType": "address",
          "name": "nftAddress",
          "type": "address"
        },
        {
          "components": [
            {
              "internalType": "uint8",
              "name": "tier",
              "type": "uint8"
            },
            {
              "internalType": "uint8",
              "name": "mul",
              "type": "uint8"
            },
            {
              "internalType": "int16",
              "name": "buff",
              "type": "int16"
            }
          ],
          "internalType": "struct BufferRandomizer.Tier",
          "name": "tier",
          "type": "tuple"
        }
      ],
      "name": "addAcceptedNFT",
      "outputs": [],
      "stateMutability": "nonpayable",
      "type": "function"
    },
    {
      "inputs": [
        {
          "internalType": "int16",
          "name": "buff",
          "type": "int16"
        }
      ],
      "name": "addBuff",
      "outputs": [],
      "stateMutability": "nonpayable",
      "type": "function"
    },
    {
      "inputs": [
        {
          "internalType": "uint256",
          "name": "index",
          "type": "uint256"
        }
      ],
      "name": "getBuff",
      "outputs": [
        {
          "internalType": "int16",
          "name": "",
          "type": "int16"
        }
      ],
      "stateMutability": "view",
      "type": "function"
    },
    {
      "inputs": [],
      "name": "getBuffs",
      "outputs": [
        {
          "internalType": "int16[]",
          "name": "",
          "type": "int16[]"
        }
      ],
      "stateMutability": "view",
      "type": "function"
    },
    {
      "inputs": [
        {
          "internalType": "int256",
          "name": "baseValue",
          "type": "int256"
        },
        {
          "internalType": "address",
          "name": "nftAddress",
          "type": "address"
        },
        {
          "internalType": "uint256",
          "name": "nftId",
          "type": "uint256"
        }
      ],
      "name": "getRandomBuff",
      "outputs": [
        {
          "internalType": "int256",
          "name": "adjustedValue",
          "type": "int256"
        }
      ],
      "stateMutability": "nonpayable",
      "type": "function"
    },
    {
      "inputs": [],
      "name": "getRandomWeight",
      "outputs": [
        {
          "internalType": "int16",
          "name": "",
          "type": "int16"
        }
      ],
      "stateMutability": "view",
      "type": "function"
    },
    {
      "inputs": [
        {
          "internalType": "address",
          "name": "nftAddress",
          "type": "address"
        }
      ],
      "name": "getTier",
      "outputs": [
        {
          "components": [
            {
              "internalType": "uint8",
              "name": "tier",
              "type": "uint8"
            },
            {
              "internalType": "uint8",
              "name": "mul",
              "type": "uint8"
            },
            {
              "internalType": "int16",
              "name": "buff",
              "type": "int16"
            }
          ],
          "internalType": "struct BufferRandomizer.Tier",
          "name": "",
          "type": "tuple"
        }
      ],
      "stateMutability": "view",
      "type": "function"
    },
    {
      "inputs": [
        {
          "internalType": "address",
          "name": "",
          "type": "address"
        }
      ],
      "name": "nftToBuffTier",
      "outputs": [
        {
          "internalType": "uint8",
          "name": "tier",
          "type": "uint8"
        },
        {
          "internalType": "uint8",
          "name": "mul",
          "type": "uint8"
        },
        {
          "internalType": "int16",
          "name": "buff",
          "type": "int16"
        }
      ],
      "stateMutability": "view",
      "type": "function"
    },
    {
      "inputs": [
        {
          "internalType": "uint256",
          "name": "index",
          "type": "uint256"
        }
      ],
      "name": "removeBuffAndReplace",
      "outputs": [],
      "stateMutability": "nonpayable",
      "type": "function"
    },
    {
      "inputs": [
        {
          "internalType": "uint256",
          "name": "index",
          "type": "uint256"
        }
      ],
      "name": "removeBuffAndShift",
      "outputs": [],
      "stateMutability": "nonpayable",
      "type": "function"
    }
  ],
  "bytecode": {
    "object": "0x60806040523480156200001157600080fd5b5060405162001268380380620012688339810160408190526200003491620003b6565b600080546001600160a01b0319163317905580518251146200006957604051634e23d03560e01b815260040160405180910390fd5b60005b8351811015620000e75760018482815181106200008d576200008d620004ad565b602090810291909101810151825460018101845560009384529190922060108204018054600f9092166002026101000a61ffff81810219909316929093169290920217905580620000de81620004c3565b9150506200006c565b5060005b8251811015620001a5578181815181106200010a576200010a620004ad565b6020026020010151600260008584815181106200012b576200012b620004ad565b6020908102919091018101516001600160a01b031682528181019290925260409081016000208351815493850151949092015161ffff16620100000263ffff00001960ff9586166101000261ffff1990951695909316949094179290921716919091179055806200019c81620004c3565b915050620000eb565b50505050620004eb565b634e487b7160e01b600052604160045260246000fd5b604051606081016001600160401b0381118282101715620001ea57620001ea620001af565b60405290565b604051601f8201601f191681016001600160401b03811182821017156200021b576200021b620001af565b604052919050565b60006001600160401b038211156200023f576200023f620001af565b5060051b60200190565b8051600181900b81146200025c57600080fd5b919050565b600082601f8301126200027357600080fd5b815160206200028c620002868362000223565b620001f0565b82815260059290921b84018101918181019086841115620002ac57600080fd5b8286015b84811015620002e05780516001600160a01b0381168114620002d25760008081fd5b8352918301918301620002b0565b509695505050505050565b805160ff811681146200025c57600080fd5b600082601f8301126200030f57600080fd5b8151602062000322620002868362000223565b828152606092830285018201928282019190878511156200034257600080fd5b8387015b85811015620003a95781818a031215620003605760008081fd5b6200036a620001c5565b6200037582620002eb565b815262000384868301620002eb565b8682015260406200039781840162000249565b90820152845292840192810162000346565b5090979650505050505050565b600080600060608486031215620003cc57600080fd5b83516001600160401b0380821115620003e457600080fd5b818601915086601f830112620003f957600080fd5b815160206200040c620002868362000223565b82815260059290921b8401810191818101908a8411156200042c57600080fd5b948201945b838610156200045557620004458662000249565b8252948201949082019062000431565b918901519197509093505050808211156200046f57600080fd5b6200047d8783880162000261565b935060408601519150808211156200049457600080fd5b50620004a386828701620002fd565b9150509250925092565b634e487b7160e01b600052603260045260246000fd5b600060018201620004e457634e487b7160e01b600052601160045260246000fd5b5060010190565b610d6d80620004fb6000396000f3fe608060405234801561001057600080fd5b50600436106100a95760003560e01c806384b0d9fd1161007157806384b0d9fd1461016c5780639030d9b51461018757806396914c581461019a578063b45aae52146101ad578063da6309e514610248578063ef4cadc51461025b57600080fd5b80631163c056146100ae578063379bc3a1146100c357806339bff709146100e95780636051e74014610144578063656682aa14610159575b600080fd5b6100c16100bc366004610abb565b610267565b005b6100d66100d1366004610b5c565b6102f0565b6040519081526020015b60405180910390f35b6101216100f7366004610b91565b60026020526000908152604090205460ff8082169161010081049091169062010000900460010b83565b6040805160ff948516815293909216602084015260010b908201526060016100e0565b61014c610393565b6040516100e09190610bb3565b6100c1610167366004610bfa565b610411565b61017461055a565b60405160019190910b81526020016100e0565b610174610195366004610bfa565b610569565b6100c16101a8366004610bfa565b6105a8565b61021b6101bb366004610b91565b6040805160608082018352600080835260208084018290529284018190526001600160a01b039490941684526002825292829020825193840183525460ff80821685526101008204169184019190915262010000900460010b9082015290565b60408051825160ff9081168252602080850151909116908201529181015160010b908201526060016100e0565b6100c1610256366004610c13565b610696565b6100d664e8d4a5100081565b6000546001600160a01b03163314610292576040516330cd747160e01b815260040160405180910390fd5b6001600160a01b039091166000908152600260209081526040918290208351815492850151939094015161ffff16620100000263ffff00001960ff9485166101000261ffff1990941694909516939093179190911792909216179055565b600083600003610313576040516370c043a360e11b815260040160405180910390fd5b6001546000036103365760405163108cef9d60e31b815260040160405180910390fd5b60006001600160a01b0384161561035657610351848461071e565b61035e565b61035e6109bd565b9050606464e8d4a51000610376600184900b88610c44565b6103809190610c44565b61038a9190610c8a565b95945050505050565b6060600180548060200260200160405190810160405280929190818152602001828054801561040757602002820191906000526020600020906000905b82829054906101000a900460010b60010b815260200190600201906020826001010492830192600103820291508084116103d05790505b5050505050905090565b6000546001600160a01b0316331461043c576040516330cd747160e01b815260040160405180910390fd5b60015480158061044c5750808210155b1561046a57604051634e23d03560e01b815260040160405180910390fd5b610475600182610cb8565b9050815b8181101561051857600161048d8282610ccb565b8154811061049d5761049d610cde565b90600052602060002090601091828204019190066002029054906101000a900460010b600182815481106104d3576104d3610cde565b90600052602060002090601091828204019190066002026101000a81548161ffff021916908360010b61ffff160217905550808061051090610cf4565b915050610479565b50600180548061052a5761052a610d0d565b600082815260209020601060001990920191820401805461ffff6002600f8516026101000a021916905590555050565b60006105646109bd565b905090565b60006001828154811061057e5761057e610cde565b90600052602060002090601091828204019190066002029054906101000a900460010b9050919050565b6000546001600160a01b031633146105d3576040516330cd747160e01b815260040160405180910390fd5b6001548015806105e35750808210155b1561060157604051634e23d03560e01b815260040160405180910390fd5b600161060d8183610cb8565b8154811061061d5761061d610cde565b90600052602060002090601091828204019190066002029054906101000a900460010b6001838154811061065357610653610cde565b90600052602060002090601091828204019190066002026101000a81548161ffff021916908360010b61ffff160217905550600180548061052a5761052a610d0d565b6000546001600160a01b031633146106c1576040516330cd747160e01b815260040160405180910390fd5b6001805480820182556000919091527fb10e2d527612073b26eecdfd717e6a320cf44b4afac2b0732d9fcbe2b7fa0cf660108204018054600f9092166002026101000a61ffff818102199093169390921691909102919091179055565b6001600160a01b03821660009081526002602052604081205460ff1681036107595760405163e142361760e01b815260040160405180910390fd5b6001600160a01b03831660009081526002602090815260408083208151606081018352905460ff8082168352610100820416938201849052620100009004600190810b928201929092529054909290916107b39083610ccb565b905060008167ffffffffffffffff8111156107d0576107d0610a82565b6040519080825280602002602001820160405280156107f9578160200160208202803683370190505b50905060005b83811015610876576001818154811061081a5761081a610cde565b90600052602060002090601091828204019190066002029054906101000a900460010b82828151811061084f5761084f610cde565b602002602001019060010b908160010b81525050808061086e90610cf4565b9150506107ff565b506000610884600185610cb8565b90505b828110156108cd5784604001518282815181106108a6576108a6610cde565b602002602001019060010b908160010b8152505080806108c590610cf4565b915050610887565b506040516323b872dd60e01b8152336004820152306024820152604481018790526001600160a01b038816906323b872dd90606401600060405180830381600087803b15801561091c57600080fd5b505af1158015610930573d6000803e3d6000fd5b5050604051630852cd8d60e31b8152600481018990526001600160a01b038a1692506342966c689150602401600060405180830381600087803b15801561097657600080fd5b505af115801561098a573d6000803e3d6000fd5b505050508061099883610a07565b815181106109a8576109a8610cde565b60200260200101519450505050505b92915050565b600060016109cf600180549050610a07565b815481106109df576109df610cde565b90600052602060002090601091828204019190066002029054906101000a900460010b905090565b60008142434033604051602001610a4393929190928352602083019190915260601b6bffffffffffffffffffffffff1916604082015260540190565b6040516020818303038152906040528051906020012060001c6109b79190610d23565b80356001600160a01b0381168114610a7d57600080fd5b919050565b634e487b7160e01b600052604160045260246000fd5b803560ff81168114610a7d57600080fd5b8035600181900b8114610a7d57600080fd5b6000808284036080811215610acf57600080fd5b610ad884610a66565b92506060601f1982011215610aec57600080fd5b506040516060810181811067ffffffffffffffff82111715610b1e57634e487b7160e01b600052604160045260246000fd5b604052610b2d60208501610a98565b8152610b3b60408501610a98565b6020820152610b4c60608501610aa9565b6040820152809150509250929050565b600080600060608486031215610b7157600080fd5b83359250610b8160208501610a66565b9150604084013590509250925092565b600060208284031215610ba357600080fd5b610bac82610a66565b9392505050565b6020808252825182820181905260009190848201906040850190845b81811015610bee578351600190810b8452938501939285019201610bcf565b50909695505050505050565b600060208284031215610c0c57600080fd5b5035919050565b600060208284031215610c2557600080fd5b610bac82610aa9565b634e487b7160e01b600052601160045260246000fd5b80820260008212600160ff1b84141615610c6057610c60610c2e565b81810583148215176109b7576109b7610c2e565b634e487b7160e01b600052601260045260246000fd5b600082610c9957610c99610c74565b600160ff1b821460001984141615610cb357610cb3610c2e565b500590565b818103818111156109b7576109b7610c2e565b808201808211156109b7576109b7610c2e565b634e487b7160e01b600052603260045260246000fd5b600060018201610d0657610d06610c2e565b5060010190565b634e487b7160e01b600052603160045260246000fd5b600082610d3257610d32610c74565b50069056fea2646970667358221220bb87464274d2a0f9a488d7620792278a0e10426c862e5b65cbd28247c4f0144564736f6c63430008130033",
    "linkReferences": {}
  },
  "methodIdentifiers": {
    "SCALING_FACTOR()": "ef4cadc5",
    "addAcceptedNFT(address,(uint8,uint8,int16))": "1163c056",
    "addBuff(int16)": "da6309e5",
    "getBuff(uint256)": "9030d9b5",
    "getBuffs()": "6051e740",
    "getRandomBuff(int256,address,uint256)": "379bc3a1",
    "getRandomWeight()": "84b0d9fd",
    "getTier(address)": "b45aae52",
    "nftToBuffTier(address)": "39bff709",
    "removeBuffAndReplace(uint256)": "96914c58",
    "removeBuffAndShift(uint256)": "656682aa"
  },
  "id": 17
}