{
  "abi": [
    {
      "inputs": [
        {
          "internalType": "int16[]",
          "name": "buffs",
          "type": "int16[]"
        },
        {
          "internalType": "address[]",
          "name": "nftAddresses",
          "type": "address[]"
        },
        {
          "components": [
            {
              "internalType": "uint8",
              "name": "tier",
              "type": "uint8"
            },
            {
              "internalType": "uint8",
              "name": "mul",
              "type": "uint8"
            },
            {
              "internalType": "int16",
              "name": "buff",
              "type": "int16"
            }
          ],
          "internalType": "struct BufferRandomizer.Tier[]",
          "name": "tiers",
          "type": "tuple[]"
        }
      ],
      "stateMutability": "nonpayable",
      "type": "constructor"
    },
    {
      "inputs": [],
      "name": "IndexOutOfBounds",
      "type": "error"
    },
    {
      "inputs": [],
      "name": "InvalidBaseValue",
      "type": "error"
    },
    {
      "inputs": [],
      "name": "InvalidTier",
      "type": "error"
    },
    {
      "inputs": [],
      "name": "InvalidWeights",
      "type": "error"
    },
    {
      "inputs": [],
      "name": "NotOwner",
      "type": "error"
    },
    {
      "inputs": [],
      "name": "SCALING_FACTOR",
      "outputs": [
        {
          "internalType": "int256",
          "name": "",
          "type": "int256"
        }
      ],
      "stateMutability": "view",
      "type": "function"
    },
    {
      "inputs": [
        {
          "internalType": "address",
          "name": "",
          "type": "address"
        }
      ],
      "name": "nftToBuffTier",
      "outputs": [
        {
          "internalType": "uint8",
          "name": "tier",
          "type": "uint8"
        },
        {
          "internalType": "uint8",
          "name": "mul",
          "type": "uint8"
        },
        {
          "internalType": "int16",
          "name": "buff",
          "type": "int16"
        }
      ],
      "stateMutability": "view",
      "type": "function"
    },
    {
      "inputs": [
        {
          "internalType": "address",
          "name": "nftAddress",
          "type": "address"
        },
        {
          "components": [
            {
              "internalType": "uint8",
              "name": "tier",
              "type": "uint8"
            },
            {
              "internalType": "uint8",
              "name": "mul",
              "type": "uint8"
            },
            {
              "internalType": "int16",
              "name": "buff",
              "type": "int16"
            }
          ],
          "internalType": "struct BufferRandomizer.Tier",
          "name": "tier",
          "type": "tuple"
        }
      ],
      "name": "addAcceptedNFT",
      "outputs": [],
      "stateMutability": "nonpayable",
      "type": "function"
    },
    {
      "inputs": [
        {
          "internalType": "int16",
          "name": "buff",
          "type": "int16"
        }
      ],
      "name": "addBuff",
      "outputs": [],
      "stateMutability": "nonpayable",
      "type": "function"
    },
    {
      "inputs": [
        {
          "internalType": "uint256",
          "name": "index",
          "type": "uint256"
        }
      ],
      "name": "getBuff",
      "outputs": [
        {
          "internalType": "int16",
          "name": "",
          "type": "int16"
        }
      ],
      "stateMutability": "view",
      "type": "function"
    },
    {
      "inputs": [],
      "name": "getBuffs",
      "outputs": [
        {
          "internalType": "int16[]",
          "name": "",
          "type": "int16[]"
        }
      ],
      "stateMutability": "view",
      "type": "function"
    },
    {
      "inputs": [
        {
          "internalType": "address",
          "name": "nftAddress",
          "type": "address"
        }
      ],
      "name": "getTier",
      "outputs": [
        {
          "components": [
            {
              "internalType": "uint8",
              "name": "tier",
              "type": "uint8"
            },
            {
              "internalType": "uint8",
              "name": "mul",
              "type": "uint8"
            },
            {
              "internalType": "int16",
              "name": "buff",
              "type": "int16"
            }
          ],
          "internalType": "struct BufferRandomizer.Tier",
          "name": "",
          "type": "tuple"
        }
      ],
      "stateMutability": "view",
      "type": "function"
    },
    {
      "inputs": [
        {
          "internalType": "int256",
          "name": "baseValue",
          "type": "int256"
        },
        {
          "internalType": "address",
          "name": "nftAddress",
          "type": "address"
        },
        {
          "internalType": "uint256",
          "name": "nftId",
          "type": "uint256"
        }
      ],
      "name": "getRandomBuff",
      "outputs": [
        {
          "internalType": "int256",
          "name": "adjustedValue",
          "type": "int256"
        }
      ],
      "stateMutability": "nonpayable",
      "type": "function"
    },
    {
      "inputs": [],
      "name": "getRandomWeight",
      "outputs": [
        {
          "internalType": "int16",
          "name": "",
          "type": "int16"
        }
      ],
      "stateMutability": "view",
      "type": "function"
    },
    {
      "inputs": [
        {
          "internalType": "uint256",
          "name": "index",
          "type": "uint256"
        }
      ],
      "name": "removeBuff",
      "outputs": [],
      "stateMutability": "nonpayable",
      "type": "function"
    },
    {
      "inputs": [
        {
          "internalType": "uint256",
          "name": "index",
          "type": "uint256"
        }
      ],
      "name": "removeBuffAndShift",
      "outputs": [],
      "stateMutability": "nonpayable",
      "type": "function"
    }
  ],
  "bytecode": {
    "object": "0x60806040523480156200001157600080fd5b506040516200127f3803806200127f8339810160408190526200003491620003b6565b600080546001600160a01b0319163317905580518251146200006957604051634e23d03560e01b815260040160405180910390fd5b60005b8351811015620000e75760018482815181106200008d576200008d620004ad565b602090810291909101810151825460018101845560009384529190922060108204018054600f9092166002026101000a61ffff81810219909316929093169290920217905580620000de81620004c3565b9150506200006c565b5060005b8251811015620001a5578181815181106200010a576200010a620004ad565b6020026020010151600260008584815181106200012b576200012b620004ad565b6020908102919091018101516001600160a01b031682528181019290925260409081016000208351815493850151949092015161ffff16620100000263ffff00001960ff9586166101000261ffff1990951695909316949094179290921716919091179055806200019c81620004c3565b915050620000eb565b50505050620004eb565b634e487b7160e01b600052604160045260246000fd5b604051606081016001600160401b0381118282101715620001ea57620001ea620001af565b60405290565b604051601f8201601f191681016001600160401b03811182821017156200021b576200021b620001af565b604052919050565b60006001600160401b038211156200023f576200023f620001af565b5060051b60200190565b8051600181900b81146200025c57600080fd5b919050565b600082601f8301126200027357600080fd5b815160206200028c620002868362000223565b620001f0565b82815260059290921b84018101918181019086841115620002ac57600080fd5b8286015b84811015620002e05780516001600160a01b0381168114620002d25760008081fd5b8352918301918301620002b0565b509695505050505050565b805160ff811681146200025c57600080fd5b600082601f8301126200030f57600080fd5b8151602062000322620002868362000223565b828152606092830285018201928282019190878511156200034257600080fd5b8387015b85811015620003a95781818a031215620003605760008081fd5b6200036a620001c5565b6200037582620002eb565b815262000384868301620002eb565b8682015260406200039781840162000249565b90820152845292840192810162000346565b5090979650505050505050565b600080600060608486031215620003cc57600080fd5b83516001600160401b0380821115620003e457600080fd5b818601915086601f830112620003f957600080fd5b815160206200040c620002868362000223565b82815260059290921b8401810191818101908a8411156200042c57600080fd5b948201945b838610156200045557620004458662000249565b8252948201949082019062000431565b918901519197509093505050808211156200046f57600080fd5b6200047d8783880162000261565b935060408601519150808211156200049457600080fd5b50620004a386828701620002fd565b9150509250925092565b634e487b7160e01b600052603260045260246000fd5b600060018201620004e457634e487b7160e01b600052601160045260246000fd5b5060010190565b610d8480620004fb6000396000f3fe608060405234801561001057600080fd5b50600436106100a95760003560e01c806384b0d9fd1161007157806384b0d9fd146101f25780639030d9b51461020d578063a339ada314610220578063da6309e514610233578063ef4cadc514610246578063fc0131071461025257600080fd5b806308c40531146100ae5780631163c0561461010e5780632f8b320714610123578063379bc3a1146101365780635939c8d914610157575b600080fd5b6100e66100bc366004610a99565b60026020526000908152604090205460ff8082169161010081049091169062010000900460010b83565b6040805160ff948516815293909216602084015260010b908201526060015b60405180910390f35b61012161011c366004610af4565b610267565b005b610121610131366004610b95565b6102f0565b610149610144366004610bae565b610405565b604051908152602001610105565b6101c5610165366004610a99565b6040805160608082018352600080835260208084018290529284018190526001600160a01b039490941684526002825292829020825193840183525460ff80821685526101008204169184019190915262010000900460010b9082015290565b60408051825160ff9081168252602080850151909116908201529181015160010b90820152606001610105565b6101fa6104a8565b60405160019190910b8152602001610105565b6101fa61021b366004610b95565b6104b7565b61012161022e366004610b95565b61051a565b610121610241366004610be3565b610628565b61014964e8d4a5100081565b61025a6106b0565b6040516101059190610bfe565b6000546001600160a01b03163314610292576040516330cd747160e01b815260040160405180910390fd5b6001600160a01b039091166000908152600260209081526040918290208351815492850151939094015161ffff16620100000263ffff00001960ff9485166101000261ffff1990941694909516939093179190911792909216179055565b6000546001600160a01b0316331461031b576040516330cd747160e01b815260040160405180910390fd5b60015481111561033e57604051634e23d03560e01b815260040160405180910390fd5b6001805461034d908290610c5b565b8154811061035d5761035d610c6e565b90600052602060002090601091828204019190066002029054906101000a900460010b6001828154811061039357610393610c6e565b90600052602060002090601091828204019190066002026101000a81548161ffff021916908360010b61ffff16021790555060018054806103d6576103d6610c84565b600082815260209020601060001990920191820401805461ffff6002600f8516026101000a0219169055905550565b600083600003610428576040516370c043a360e11b815260040160405180910390fd5b60015460000361044b5760405163108cef9d60e31b815260040160405180910390fd5b60006001600160a01b0384161561046b57610466848461072e565b610473565b6104736109d4565b9050606464e8d4a5100061048b600184900b88610c9a565b6104959190610c9a565b61049f9190610ce0565b95945050505050565b60006104b26109d4565b905090565b6001546000908211156104dd57604051634e23d03560e01b815260040160405180910390fd5b600182815481106104f0576104f0610c6e565b90600052602060002090601091828204019190066002029054906101000a900460010b9050919050565b6000546001600160a01b03163314610545576040516330cd747160e01b815260040160405180910390fd5b60015481111561056857604051634e23d03560e01b815260040160405180910390fd5b805b600180546105789190610c5b565b81101561061657600161058b8282610d0e565b8154811061059b5761059b610c6e565b90600052602060002090601091828204019190066002029054906101000a900460010b600182815481106105d1576105d1610c6e565b90600052602060002090601091828204019190066002026101000a81548161ffff021916908360010b61ffff160217905550808061060e90610d21565b91505061056a565b5060018054806103d6576103d6610c84565b6000546001600160a01b03163314610653576040516330cd747160e01b815260040160405180910390fd5b6001805480820182556000919091527fb10e2d527612073b26eecdfd717e6a320cf44b4afac2b0732d9fcbe2b7fa0cf660108204018054600f9092166002026101000a61ffff818102199093169390921691909102919091179055565b6060600180548060200260200160405190810160405280929190818152602001828054801561072457602002820191906000526020600020906000905b82829054906101000a900460010b60010b815260200190600201906020826001010492830192600103820291508084116106ed5790505b5050505050905090565b6001600160a01b03821660009081526002602052604081205460ff1681036107695760405163e142361760e01b815260040160405180910390fd5b6001600160a01b03831660009081526002602090815260408083208151606081018352905460ff8082168352610100820416938201849052620100009004600190810b928201929092529054909290916107c39083610d0e565b905060008167ffffffffffffffff8111156107e0576107e0610abb565b604051908082528060200260200182016040528015610809578160200160208202803683370190505b50905060005b83811015610886576001818154811061082a5761082a610c6e565b90600052602060002090601091828204019190066002029054906101000a900460010b82828151811061085f5761085f610c6e565b602002602001019060010b908160010b81525050808061087e90610d21565b91505061080f565b506000610894600185610c5b565b90505b846020015160ff168110156108e45784604001518282815181106108bd576108bd610c6e565b602002602001019060010b908160010b8152505080806108dc90610d21565b915050610897565b506040516323b872dd60e01b8152336004820152306024820152604481018790526001600160a01b038816906323b872dd90606401600060405180830381600087803b15801561093357600080fd5b505af1158015610947573d6000803e3d6000fd5b5050604051630852cd8d60e31b8152600481018990526001600160a01b038a1692506342966c689150602401600060405180830381600087803b15801561098d57600080fd5b505af11580156109a1573d6000803e3d6000fd5b50505050806109af83610a1e565b815181106109bf576109bf610c6e565b60200260200101519450505050505b92915050565b600060016109e6600180549050610a1e565b815481106109f6576109f6610c6e565b90600052602060002090601091828204019190066002029054906101000a900460010b905090565b60008142434033604051602001610a5a93929190928352602083019190915260601b6bffffffffffffffffffffffff1916604082015260540190565b6040516020818303038152906040528051906020012060001c6109ce9190610d3a565b80356001600160a01b0381168114610a9457600080fd5b919050565b600060208284031215610aab57600080fd5b610ab482610a7d565b9392505050565b634e487b7160e01b600052604160045260246000fd5b803560ff81168114610a9457600080fd5b8035600181900b8114610a9457600080fd5b6000808284036080811215610b0857600080fd5b610b1184610a7d565b92506060601f1982011215610b2557600080fd5b506040516060810181811067ffffffffffffffff82111715610b5757634e487b7160e01b600052604160045260246000fd5b604052610b6660208501610ad1565b8152610b7460408501610ad1565b6020820152610b8560608501610ae2565b6040820152809150509250929050565b600060208284031215610ba757600080fd5b5035919050565b600080600060608486031215610bc357600080fd5b83359250610bd360208501610a7d565b9150604084013590509250925092565b600060208284031215610bf557600080fd5b610ab482610ae2565b6020808252825182820181905260009190848201906040850190845b81811015610c39578351600190810b8452938501939285019201610c1a565b50909695505050505050565b634e487b7160e01b600052601160045260246000fd5b818103818111156109ce576109ce610c45565b634e487b7160e01b600052603260045260246000fd5b634e487b7160e01b600052603160045260246000fd5b80820260008212600160ff1b84141615610cb657610cb6610c45565b81810583148215176109ce576109ce610c45565b634e487b7160e01b600052601260045260246000fd5b600082610cef57610cef610cca565b600160ff1b821460001984141615610d0957610d09610c45565b500590565b808201808211156109ce576109ce610c45565b600060018201610d3357610d33610c45565b5060010190565b600082610d4957610d49610cca565b50069056fea26469706673582212201bc438c280e4bec2b509a579d725bbdbff0bdcb94aad259dd01363c0494d2ed064736f6c63430008130033",
    "linkReferences": {}
  },
  "methodIdentifiers": {
    "SCALING_FACTOR()": "ef4cadc5",
    "nftToBuffTier(address)": "08c40531",
    "addAcceptedNFT(address,(uint8,uint8,int16))": "1163c056",
    "addBuff(int16)": "da6309e5",
    "getBuff(uint256)": "9030d9b5",
    "getBuffs()": "fc013107",
    "getTier(address)": "5939c8d9",
    "getRandomBuff(int256,address,uint256)": "379bc3a1",
    "getRandomWeight()": "84b0d9fd",
    "removeBuff(uint256)": "2f8b3207",
    "removeBuffAndShift(uint256)": "a339ada3"
  },
  "id": 17
}